:1000000012C02CC02BC02AC029C028C027C026C0BF
:1000100025C024C023C022C021C020C01FC01EC0D4
:100020001DC01CC01BC011241FBECFE5D4E0DEBF25
:10003000CDBF10E0A0E6B0E0E6ECF1E002C0059034
:100040000D92A838B107D9F710E0A8E8B0E001C0D8
:100050001D92A838B107E1F715D0B3C0D1CF8FEF0B
:1000600080B9089584EA86BF06B607FEFDCF0895DD
:1000700083B984E886BF06B607FEFDCF089584E9FC
:1000800086BF0895CF93DF93CDB7DEB7A8970FB69D
:10009000F894DEBF0FBECDBFDE011196E0E6F0E0C2
:1000A0008CE001900D928150E1F7FE013D9688E0D1
:1000B000DF011D928A95E9F7DE015596E4E7F0E04D
:1000C00089E001900D928150E1F7FE017E968BE070
:1000D000DF011D928A95E9F7C2DF8FEB97E2A9E075
:1000E00081509040A040E1F700C000000F2EF5E1E4
:1000F000EF2EFF24F02DEC0EFD1E0F2EF9E2CF2E79
:10010000DD24F02DCC0EDD1EADDFA7E9BAE311979B
:10011000F1F700C0000080E2ABDFE7E9FAE33197D6
:10012000F1F700C000008E010F5F1F4FD8018D91C5
:100130008D019EDFEBEDF5E03197F1F700C0000097
:100140000E151F0599F787E99AE30197F1F700C0AB
:10015000000095DF8FE79FE4A2E181509040A0402E
:10016000E1F700C000007EDFA7E9BAE31197F1F7DD
:1001700000C0000080E47CDFE7E9FAE33197F1F7A3
:1001800000C000008701D8018D918D0171DFEBED7A
:10019000F5E03197F1F700C000000C151D0599F747
:1001A00087E99AE30197F1F700C0000068DF8FE765
:1001B0009FE4A2E181509040A040E1F700C0000020
:0601C000A3CFF894FFCF6D
:1001C6004C55434B5920504154454C00000000000B
:1001D60000000000414248495348454B00000000DA
:0801E600000000000000000011
:00000001FF
