:1000000012C02CC02BC02AC029C028C027C026C0BF
:1000100025C024C023C022C021C020C01FC01EC0D4
:100020001DC01CC01BC011241FBECFE5D4E0DEBF25
:10003000CDBF10E0A0E6B0E0E2EBF1E002C0059039
:100040000D92A036B107D9F710E0A0E6B0E001C0EC
:100050001D92A036B107E1F77CD0A9C0D1CF982F6F
:10006000907F92BB90989198929AE1EEF4E031974C
:10007000F1F700C000009298E1EEF4E03197F1F75B
:1000800000C000008295807F82BB90989198929AE0
:1000900081EE94E00197F1F700C000009298E1EE44
:1000A000F4E03197F1F700C000000895982F907F99
:1000B00092BB909A9198929AE1EEF4E03197F1F721
:1000C00000C000009298E1EEF4E03197F1F700C033
:1000D00000008295807F82BB909A9198929A81EEDF
:1000E00094E00197F1F700C000009298E1EEF4E08F
:1000F0003197F1F700C00000089582E0B0DF88E298
:10010000AEDF8CE0ACDF86E0AADF81E0A8DF80E82C
:10011000A6DF0895CF93DF93EC018881882329F02F
:100120002196C4DF89918823E1F7DF91CF9108956B
:1001300094EC96BF06B607FC04C083B106B607FE72
:10014000FCCF089584EC86BF06B607FEFDCF83B1D1
:1001500008958FEF81BBD1DF80E482B984E086BF50
:1001600083E7A4DF8FE39DE0A3E081509040A040AF
:10017000E1F700C0000004E110E0E4DF83E796DF70
:10018000A9E6B8E11197F1F700C0000081E067DF50
:10019000E801CEDF8BDF2197E1F78FE79AE1A6E058
:1001A00081509040A040E1F700C00000E6CFF894F5
:0201B000FFCF7F
:00000001FF
